:020000040800F2
:100000007008002045010008131C0008A31900080F
:10001000111C0008ED030008F92D00080000000085
:10002000000000000000000000000000BD220008E9
:10003000A504000800000000C91F0008812900086D
:100040005F0100085F0100085F0100085F01000810
:100050005F0100085F0100085F0100085F01000800
:100060005F0100085F0100085F0100085F010008F0
:100070005F0100085F0100088D0400089904000872
:100080005F0100085F0100085F0100085F010008D0
:100090005F0100085F0100085F0100085F010008C0
:1000A0005F0100085F0100085F0100085F010008B0
:1000B0005F0100081D2A00085F0100085F010008B9
:1000C0005F0100085F0100085F0100085F01000890
:1000D0005F010008E12D00085F010008ED2D000818
:1000E0005F0100085F0100085F0100085F01000870
:1000F0005F0100085F0100085F0100085F01000860
:100100005F0100085F0100085F0100085F0100084F
:100110005F0100085F010008292A0008352A00084D
:100120005F0100085F0100085F0100085F0100082F
:10013000DFF80CD000F048F900480047192E0008FD
:10014000700800200648804706480047FEE7FEE7A3
:10015000FEE7FEE7FEE7FEE7FEE7FEE7FEE7FEE777
:10016000D529000831010008D2B201E000F8012BC6
:10017000491EFBD270470022F6E710B513460A4627
:1001800004461946FFF7F0FF204610BDF0B480EAA0
:100190000102D40F4200B2EB410F02D202460846E0
:1001A00011464A0042D0C30DDDB2C1F3C752AD1AA9
:1001B000202D35DAC1F3160141F4000204B1524298
:1001C000C5F1200602FA06F12A411044B3EBD05FD4
:1001D00023D0C4B1012DA0EBC35009DCF0BC4FF01B
:1001E000004202EAC352DBB200F5000000F0BDB8E5
:1001F000400000F1807000EBC350A0F1807040EA35
:10020000D170490009E0490841EAC071A0EBC35030
:1002100000F50000400800EBC350F0BC00F09CB8B3
:100220006142012202EB4101001BF6E7F0BC70477E
:1002300081F00041AAE780F00040A7E780EA0102D0
:1002400010B502F00043400022D04A001FD0010E3A
:1002500001EB1261C0F35600C2F3560240F40000F5
:1002600042F40002A0FB022000047F39140400D0F5
:10027000401C50EA124001D44000491EC2B20C0694
:1002800004EBD010401C4008802A02D003E000207C
:1002900010BD20F00100002900DA0020184310BD35
:1002A00030B480EA010202F0004530F0004221F053
:1002B000004013D090B1C30DD40DC2F31601C0F3AA
:1002C0001600E41A41F4000140F400027D3491422A
:1002D00001D3641C00E04900002C02DA30BC00208D
:1002E00070474FF400000023914201D3891A034361
:1002F00040084FEA4101F7D151B1914202D14FF08C
:10030000004105E002D24FF0010101E06FF0010170
:1003100003EBC450284430BC00F01EB896230022E2
:10032000114600F022B800F0004220F00040C10D5C
:10033000C0F3160040F400007F2901DA0020704766
:10034000962903DCC1F19601C84001E09639884046
:10035000002AF4D0404270470029A8BF7047401CD3
:10036000490008BF20F00100704710B4B0FA80FCCB
:1003700000FA0CF050EA010404BF10BC704749B108
:10038000CCF1200421FA04F411FA0CF118BF012178
:1003900021430843A3EB0C01CB1D4FEA00614FEA58
:1003A000102042BF002010BC704700EBC350104427
:1003B0000029A4BF10BC7047401C490008BF20F0B2
:1003C000010010BC70470000064C074D06E0E068D5
:1003D00040F0010394E8070098471034AC42F6D38C
:1003E000FFF7AAFE8C340008AC340008FEE70000DA
:1003F00070B500231A4618460E4C0F4D15E000BF8D
:10040000C3EBC30614F8161001290CD104EB460106
:10041000521CD2B2487088724872087204F81600F2
:10042000C872087348735B1CDBB2A9789142E7D8A5
:10043000A87070BDB70000200C00002004480168BF
:1004400041F400410160016821F4E041016070471E
:10045000002001400448016841F4405101600168F6
:1004600021F44041016070470020014010B500F0C8
:100470001BF8044800F048FFBDE81040024800F0B7
:1004800043BF000024030020A4020020014800F024
:1004900003B9000028040020014800F0FDB8000066
:1004A000E403002070470000014800F02DBF000069
:1004B000E4020020084910B500230B7001224A70A5
:1004C000064C6362636A834202D20B78002BF9D038
:1004D0004A70087810BD00001C0000200010004089
:1004E000704700000949887800280DD04A78C81C58
:1004F000105C4A78521C4A704A78642A01D3002260
:100500004A708A78521E8A7070470000500000209E
:1005100010B501784FF6FF72447802EA01210C43CE
:10052000C4F30E00FFF7FAFE0349FFF7B9FE2104FA
:1005300001D580F0004010BD0000204110B5817849
:100540004FF6FF72C47802EA01210C43C4F30E0097
:10055000FFF7E4FE0349FFF7A3FE210401D580F075
:10056000004010BD000020412DE9F05F90F82110FF
:100570000024022903D004218163012485E001685D
:100580000A6822F00E020A6001680A6822F001027D
:100590000A603F4E3E4FB215DFF8F4C0DFF8F0902E
:1005A000DFF8ECA0DFF8E8B0DFF8E4E00168783FBE
:1005B00013011502ACF1640CA9F15009AAF13C0A2F
:1005C000ABF1280BAEF1140E4FF48018B14227D9CD
:1005D000B9420ED0614512D049451DD0514518D0C1
:1005E000594518D0714501D1424615E0294EB14216
:1005F00001D1012210E0274E1436B14201D1102260
:100600000AE0244E2836B14206D0224A3C329142BA
:1006100001D11A4600E02A461E49091F0A602BE054
:10062000B94213D0614517D0494522D051451DD05C
:1006300059451DD0714501D142461AE0B14202D15F
:100640004FF0807215E0134EB14201D1012210E04B
:10065000104E1436B14201D110220AE00D4E283658
:10066000B14206D00B4A3C32914201D11A4600E019
:100670002A46074980394A60012180F8211000216B
:1006800080F82010416B01B188472046BDE8F09FFB
:1006900080000240080402402DE9F05FC16B0A6847
:1006A00001680B68046C4FF0040808FA04F8844DE4
:1006B000844E854FDFF814C2DFF81492DFF814A2DD
:1006C000DFF814B2DFF814E218EA020F65D05FEA2F
:1006D000437862D50A68920603D40A6822F00402BD
:1006E0000A60DFF8F0814FF48062016808F11408B5
:1006F00013011402414524D9A9420DD0B1420FD0B3
:10070000B9421AD0614515D0494515D0514501D19E
:10071000120312E0594501D104220EE0714501D1C6
:1007200040220AE06D4D1435A94206D06B4A2832AA
:10073000914201D11A4600E022466749091F0A602A
:1007400029E0A94213D0B14215D0B94220D0614569
:100750001BD049451BD0514502D14FF4800217E010
:10076000414502D14FF0806212E0594501D1042287
:100770000EE0714501D140220AE0584D1435A942DE
:1007800006D0564A2832914201D11A4600E022464C
:100790004B4908394A60C16A71E04FF0020808FA13
:1007A00004F818EA020F70D05FEA83786DD50A6802
:1007B000920606D40A6822F00A020A60012180F833
:1007C0002110DFF810814FF40072016808F114085D
:1007D00013011402414524D9A9420DD0B1420FD0D2
:1007E000B9421AD0614515D0494515D0514501D1BE
:1007F000120312E0594501D102220EE0714501D1E8
:1008000020220AE0354D1435A94206D0334A283259
:10081000914201D11A4600E022462F49091F0A6081
:1008200029E0A94213D0B14215D0B94220D0614588
:100830001BD049451BD0514502D14FF4001217E09F
:10084000414502D14FF0007212E0594501D1022218
:100850000EE0714501D120220AE0204D1435A94255
:1008600006D01E4A2832914201D11A4600E02246A3
:10087000134908394A60002180F82010816A002954
:100880001CD0BDE8F05F0847FFE70825A5401542EA
:1008900014D01A0712D50A6822F00E020A6090F8E6
:1008A0004020C36B012101FA02F25A60816380F893
:1008B0002110002180F82010016BE0E7BDE8F09FD7
:1008C000080002401C000240300002404400024088
:1008D000580002406C000240080402401C04024020
:1008E00030B560B11A4B026814219A4209D2194BF3
:1008F0001344B3FBF1F18900016417490AE00120B8
:1009000030BD134B5B421344B3FBF1F1890001642A
:100910000F490839C163022180F82110136843F69A
:10092000F0718B43F0E901142143D0E902452C43D7
:1009300021430469214344692143846921431943C4
:10094000116000214163012242770177084630BDE2
:1009500008040240F8FFFDBF0000024070B50446E5
:1009600000F008F90546601C02D0044800780444F1
:1009700000F000F9401BA042FAD370BD40000020F7
:100980002DE9F84FDFF8B8A100220AF1040B144654
:1009900001274FF00F090BF1040E00BF0B6807FA97
:1009A00004F52B40AB4274D1DFF898C14E68A6EB3A
:1009B0000C0866452BD00DDC032E34D005DC36B395
:1009C000012E19D0022E2FD11BE0112E16D0122E7F
:1009D0002AD119E0B8F5881F19D006DCB8F5803F98
:1009E00015D0B8F5801F1FD111E0B8F5001F0ED04B
:1009F000B8F5041F18D10AE0CA6815E0CA68121DCC
:100A000012E0CA6808320FE0CA680C320CE08A684B
:100A10002AB1012A4FF0080203D0456104E0042204
:100A200002E0056100E00022FF2B01D8064601E04C
:100A300000F104064FEA840501D9A5F12005D6F896
:100A400000C009FA05F82CEA080C02FA05F54CEA90
:100A5000050CC6F800C04D68ED006AD53A4DAE6988
:100A600046F00106AE61AD6924F0030605F001050C
:100A70000095364D06EB050CDCF80850A6074FEA4A
:100A8000167809FA08F6B543314EB04202D1002675
:100A90001AE04EE02F4EB04201D1012614E02E4E56
:100AA000B04201D102260FE02C4EB04201D1032604
:100AB0000AE02B4EB04201D1042605E0294EB04297
:100AC00001D1052600E0062606FA08F62E43CCF8EA
:100AD00008604D68DAF80060ED03554601D51E4305
:100AE00000E09E432E604D68AD0305D5DBF8006045
:100AF0001E43CBF8006004E0DBF800509D43CBF8C8
:100B000000504D68DEF80060ED02754601D51E43C9
:100B100000E09E432E604D68AD0205D5084D0C35B2
:100B20002E681E432E6004E0054E0C3635689D434A
:100B30003560641C102CFFF431AFBDE8F88F000065
:100B400000040140000011100010024000000140AC
:100B500000080140000C0140001001400014014059
:100B600000180140001C01400AB1016170470904EE
:100B7000FBE700000148806870470000400000204B
:100B8000024881680278114481607047400000206B
:100B9000074810B5016841F010010160032000F022
:100BA00073F8002000F006F800F024F8002010BDD3
:100BB0000020024070B50D4D04464FF47A7128783C
:100BC000B1FBF0F00A490968B1FBF0F000F0FCFA63
:100BD00048B9102C07D200222146501E00F034F8EC
:100BE00000206C6070BD012070BD0000400000203E
:100BF0004C0000200C4808B5816941F00101816179
:100C0000816901F001010091C16941F08051C16128
:100C1000C06900F0805000900448416821F0E06114
:100C200041F08061416008BD0010024000000140B9
:100C300000F01F02012191404009800000F1E020F6
:100C4000C0F8001170470000F0B40E4B1B680C4652
:100C5000C3F30223C3F10705042D00D90425191D90
:100C6000072901D2002300E0DB1E012606FA05F168
:100C7000491E214099409E40761E16403143F0BCEB
:100C800000F0C8BF0CED00E0064900F0070208685C
:100C90004FF6FF03184040EA0220034A1043086061
:100CA000704700000CED00E00000FA052DE9F04768
:100CB000DFF8548105460E46D8F8000000F0070022
:100CC000B0420CD2D8F8001021F007013143C8F827
:100CD0000010D8F8000000F00700B0426FD128687B
:100CE0004A4C810712D5400703D5606840F4E060A4
:100CF00060602878000703D5606840F46050606049
:100D00006068A96820F0F000084360602878C00798
:100D100044D06868012816D02168022816D08907B7
:100D200000294CDA616821F0030101436160FFF79B
:100D300021FF6968074641F2883001290ED0022957
:100D4000814618D026E021688903E9E78901E7E7B1
:100D5000FFF710FFC11B494501D918E081466068C3
:100D6000C0F381000128F3D118E000BFFFF702FFB4
:100D7000C11B49450BD86068C0F381000228F5D13A
:100D80000CE000BFFFF7F6FEC11B494502D9032066
:100D9000BDE8F087606810F00C0FF3D1D8F80010B0
:100DA000404601F00701B1420BD9016821F007016B
:100DB00031430160006800F00700B04201D001201B
:100DC000E6E72878400705D56068E96820F4E06028
:100DD000084360602878000706D56068296920F418
:100DE000605040EAC100606000F036F86168084A6F
:100DF000C1F30311515CC840064908600020FFF7A9
:100E0000D9FE0020C4E7000000200240001002408C
:100E1000743400084C000020044805490068496803
:100E2000044AC1F30221515CC84070474C000020C5
:100E300000100240843400080448054900684968ED
:100E4000044AC1F3C221515CC84070474C000020E5
:100E5000001002408434000812A185B00FC98DE84B
:100E60000F0014A0144A006804905168134801F060
:100E70000C03042B10D0082B0ED1C1F38343C903FC
:100E80001DF803000AD5516804AAC1F34041515C22
:100E90000A4A5043B0FBF1F005B070470849484397
:100EA000FAE7000002030405060708090A0B0C0D07
:100EB0000E0F1010010200000010024000127A0014
:100EC00000093D002DE9F84F04460078B94DC007F0
:100ED00048D06868C0F38100012807D06868C0F373
:100EE0008100022809D16868C00306D528688003FC
:100EF00038D5606800286FD034E06068B0F5803F76
:100F00000BD010B1B0F5A02F11D0286820F480309C
:100F10002860286820F4802002E0286840F48030AF
:100F20002860606888B1FFF725FE064609E028685A
:100F300040F480202860F0E7FFF71CFE801B642847
:100F400075D828688003F7D50CE0FFF713FE064636
:100F500005E000BFFFF70EFE801B6428F0D828686C
:100F60008003F7D42078944E80074FF001094FF0AA
:100F700000083BD5686810F00C0F07D06868C0F314
:100F80008100022809D16868C00306D42868800758
:100F900014D5206901281FD110E02069B0B1C6F82E
:100FA0000090FFF7E7FD074605E000BFFFF7E2FD11
:100FB000C01B0228C4D828688007F7D52868616953
:100FC00020F0F80040EAC10028600FE0C6F8008079
:100FD000FFF7D0FD074606E0E9E000BFFFF7CAFDD6
:100FE000C01B022823D828688007F7D42078000780
:100FF0002CD57248A169D9B1C0F80090FFF7BAFDAD
:10100000074604E0FFF7B6FDC01B02280FD8686A48
:101010008007F7D56A484FF4FA510068B0FBF1F049
:10102000009000BF0098411E0091FAD20EE080E0CF
:10103000C0F80080FFF79EFD074604E0FFF79AFD29
:10104000C01B022875D8686A8007F7D4207840074B
:1010500060D5E8690027C00008D4E86940F08050F6
:10106000E861E869012700F0805000905548016868
:10107000C90513D40168834641F480710160FFF70C
:1010800079FD824606E000BFFFF774FDA0EB0A0081
:1010900064284ED8DBF80000C005F5D5E0680128CB
:1010A0000AD008B1052813D0286A20F00100286270
:1010B000286A20F0040002E0286A40F0010028625B
:1010C000E06841F2883B98B1FFF754FD82460BE09F
:1010D000286A40F004002862EEE700BFFFF74AFDEF
:1010E000A0EB0A0159455AD8286A8007F6D50CE0CA
:1010F000FFF740FD824605E0FFF73CFDA0EB0A014B
:1011000059454CD8286A8007F6D41FB1E86920F009
:101110008050E861E06988B36968C1F38101022900
:1011200045D00228C6F8608004D0FFF723FD0446AE
:1011300038E034E0FFF71EFD074604E0FFF71AFD34
:10114000C01B02282BD828688001F7D4206AB0F58C
:10115000803F05D16868A16820F4003008436860CA
:10116000D4E908010843696821F4741108436860F0
:10117000C6F86090FFF7FEFC044606E015E000BFED
:10118000FFF7F8FC001B022809D828688001F7D572
:101190000BE000BFFFF7EEFC001B022802D9032082
:1011A000BDE8F88F28688001F4D40020F8E701201A
:1011B000F6E7000000100240000042428004424274
:1011C0004C0000200070004010B5401EB0F1807F40
:1011D00001D3012010BD4FF0E02460610F216017A2
:1011E00000F018FD0020A06107202061002010BD44
:1011F0007047704730B590F83C20012A20D001227A
:1012000080F83C20022380F83D3003685C6824F0BD
:1012100070045C6003685C680D682C435C60036864
:101220009C6824F080049C6003689C6849680C43B7
:101230009C6080F83D20002180F83C10084630BDBD
:10124000022030BD10B5040003D094F83D0010B169
:1012500007E0012010BD002084F83C00204600F08B
:101260000DF8022084F83D00211D206801F0E8FB04
:10127000012084F83D00002010BD000008B51E4A82
:1012800001681E4891420ED1C16941F00201C1615D
:10129000C069002200F00200009002211D20FFF72B
:1012A000D3FC1D2022E0164A91420ED1C16941F0C3
:1012B0001001C161C069002200F0100000900421FB
:1012C0003620FFF7C1FC362010E00E4A914211D1C2
:1012D000C16941F02001C161C069002200F0200015
:1012E000009001213720FFF7AFFC3720BDE8084010
:1012F000FFF79EBC08BD0000000400400010024043
:1013000000100040001400400168CA6842F0010269
:10131000CA600068016841F0010101600020704767
:101320000168CA6822F00102CA600068016A41F2DD
:101330001112114207D1016A9210114203D10168C2
:1013400021F0010101600020704770B5044690F85B
:101350003C00012817D0012584F83C50022084F875
:101360003D002068826822F0770222F47F4282608A
:101370000868502837D00DDC202859D005DC88B308
:10138000102841D151E0022070BD302853D04028B0
:101390003AD13FE060282ED070280BD0B0F5805FA6
:1013A00003D0B0F5005F2FD110E02068816821F0F4
:1013B000070115E0CB68D1E90121206801F086FB27
:1013C0002168886840F0770088601DE0CB68D1E92B
:1013D0000121206801F07AFB2068816841F4804196
:1013E000816011E01EE0CA684968206801F080FB56
:1013F0005021206806E0CA684968206801F089FB2E
:101400006021206801F06CFB84F83D50002084F8D6
:101410003C0070BDCA684968206801F069FB402142
:101420002068EFE700212068ECE710212068E9E759
:1014300020212068E6E730212068E3E7704770B597
:101440000446006801694FF00005C943890715D4B7
:10145000C168C943890711D4E91E016101202077C1
:10146000206880698007204602D0FFF7E7FF04E08C
:1014700000F098F8204600F096F82577206801697A
:10148000C943490717D4C168C943490713D46FF04A
:1014900004010161022020772068806910F4407FF8
:1014A000204602D0FFF7CAFF04E000F07BF8204698
:1014B00000F079F8257720680169C943090716D437
:1014C000C168C943090712D46FF008010161042003
:1014D00020772068C0698007204602D0FFF7AEFF62
:1014E00004E000F05FF8204600F05DF82577206802
:1014F0000169C943C90617D4C168C943C90613D4D1
:101500006FF010010161082020772068C06910F495
:10151000407F204602D0FFF791FF04E000F042F840
:10152000204600F040F8257720680169C943C907C3
:1015300008D1C168C943C90704D1891E0161204689
:1015400000F032F820680169C943090609D4C1686E
:10155000C943090605D46FF0800101612046FFF7F9
:1015600047FE20680169C943490609D4C168C943D7
:10157000490605D46FF040010161204600F040F8B3
:1015800020680169C94389060BD4C168C94389062B
:1015900007D46FF0200101612046BDE87040FFF7DD
:1015A00028BE70BD70477047124A016812489142C8
:1015B00003D14278012A00D10270104A914217D11A
:1015C0004168491C41608168491C8160C168491CAF
:1015D000C1600169491C01618169491C81614169DE
:1015E000491C4161C169491CC161016A491C016210
:1015F00070470000001000401C0000200004004064
:101600007047704710B504460068C16821F49071B6
:10161000C1602068416921F0010141612068416990
:101620004FF020024B064FF000010FD5436923F025
:1016300040034361606B48B108494163606BFEF74A
:1016400093FF48B1606B416B884705E0E18584F802
:101650003A202046FFF7D5FF002010BD472B000899
:101660007047000070B5026804461068D16853697D
:1016700010F00F0F50D003F0010501F490763543C0
:101680005DD0C20705D0CA0503D5E26B42F0010266
:10169000E263420705D5DA0703D0E26B42F00202AB
:1016A000E263820705D5DA0703D0E26B42F0040259
:1016B000E263020705D5DA0703D0E26B42F00802C5
:1016C000E263E26B002A33D0800604D5880602D597
:1016D000204601F050FA20684069E16BC0F38010A9
:1016E000090700D428B3204601F037FA2068416981
:1016F00049061AD5416921F040014161606BA0B1F2
:101700001B494163606BFEF72FFF002810D0606B10
:10171000416BBDE870400847830610D58B060ED597
:101720002046BDE8704001F026BA2046FFF798FF3A
:1017300070BD2046FFF794FF0020E06370BD0306F4
:1017400006D50B0604D52046BDE8704001F016BB57
:101750004006F3D54806F1D5D168204621F0400176
:10176000D160202184F8391000F01AF970BD000012
:10177000372B000870B5040004D094F83900002518
:1017800010B106E0012070BD84F83850204600F00A
:1017900023F8242084F839002068C16821F400511E
:1017A000C160204601F032FA2068016921F49041BD
:1017B00001612068416921F02A0141612068C16806
:1017C00041F40051C160E563202084F8390084F8B9
:1017D0003A00002070BD0000F0B585B000240094F0
:1017E000019402940394064603684348414D022144
:1017F00003220715AB424FD1836943F480438361D1
:10180000836903F480430493836943F00403836191
:1018100080693A4D00F0040004900802CDE900010F
:10182000039269462846FFF7ABF8CDE90074694694
:1018300028460294FFF7A4F8324D31488027C5E9C5
:101840000004C5E9024720202C61C5E9054028466F
:10185000EC61FFF745F808B1FEF742FE75636E6272
:10186000284D27484435143801C5102091C5254816
:1018700045F8104944306C61AC61EC61FFF730F819
:1018800008B1FEF72DFE35630022052125206E628A
:10189000FFF7DAF9252028E01B4DAB4227D1C369B9
:1018A00043F48023C361C36903F4802304938369F1
:1018B00043F0080383618069CDE9007100F00800FE
:1018C000CDE90320114D69462846FFF759F8E81481
:1018D000CDE90004694628460294FFF751F800223A
:1018E00003212720FFF7B0F92720FFF7A1F905B062
:1018F000F0BD000000380140001002400008014027
:1019000058000240E403002000480040000C014061
:1019100090F83A30202B22D1F9B1F2B190F838305A
:10192000012B1CD081628285C2850021C1632222E5
:1019300080F83A2080F838100168CA6842F4807252
:10194000CA6001684A6942F001024A610068C168E0
:1019500041F02001C1600020704701207047022043
:101960007047000010B50068094988420ED1094847
:101970008078642803D20848007800F04FFBBDE867
:101980001040012204490548FFF7C2BF10BD000006
:10199000004800405000002000000020A403002068
:1019A0007047FEE70D4808B5416941F0010141610A
:1019B0004069002200F00100009011460E20FFF760
:1019C00043F90E20FFF734F9002211460F20FFF7EC
:1019D0003BF9BDE808400F20FFF72AB9001002408C
:1019E00070B586B000252C480095019502950395A9
:1019F000816941F040018161816901F040010491F8
:101A0000816941F010018161816901F01001049147
:101A1000816941F008018161816901F00801049147
:101A2000816941F480718161816901F4807104915F
:101A3000816941F004018161816901F0040104912F
:101A4000816941F0200181618069144E00F020001D
:101A500004900122F8213046FFF786F85020CDE9A6
:101A600000050124694602940D48FEF789FF08200D
:101A7000CDE90005694602940A48FEF781FFF82087
:101A8000CDE900040320CDE9024069463046FEF767
:101A900077FF06B070BD0000001002400014014046
:101AA000001801400020014010B586B000241748FE
:101AB00000940194029403940494134905940160E2
:101AC0004721C0E9011440F2E731C0E90314802145
:101AD0008161FFF7B7FB08B1FEF702FD4FF48050BC
:101AE000009069460948FFF730FC08B1FEF7F8FCA2
:101AF000049404A905480594FFF77CFB002801D055
:101B0000FEF7EEFC06B010BD00040040A402002069
:101B10001CB500240F4800940D4901940160472131
:101B2000C0E901144EF66021C16080218161FFF798
:101B300089FB08B1FEF7D4FC00946946054801947E
:101B4000FFF758FB002801D0FEF7CAFC1CBD0000BF
:101B500000100040E40200201CB500240F4800944F
:101B60000D49019401604821C0E9011440F2E731B8
:101B7000C16080218161FFF765FB08B1FEF7B0FC11
:101B80000094694605480194FFF734FB002801D012
:101B9000FEF7A6FC1CBD000000140040240300203A
:101BA0000C4810B50A4901604FF4E1314160002151
:101BB00081600C22C160C0E904128161C161FFF73C
:101BC000D9FD002803D0BDE81040FEF789BC10BD48
:101BD00000380140640300200C4810B50A49016038
:101BE0004FF4E1314160002181600C22C160C0E905
:101BF00004128161C161FFF7BDFD002803D0BDE87B
:101C00001040FEF76DBC10BD00480040A40300204A
:101C1000FEE770470907090E002806DA00F00F00FA
:101C200000F1E02080F8141D704700F1E02080F8FA
:101C30000014704730B5002404F1B000C0B2002198
:101C400000F09CF90021022000F098F900211020FA
:101C500000F094F900250121002000F08FF96D1C9F
:101C6000EDB2802DF7D3641CE4B2082CE4D330BD70
:101C700070B5484C102525606420FEF76FFE2804DF
:101C800020606420FEF76AFE25600021AE2000F08F
:101C900075F90021022000F071F90021102000F0F8
:101CA0006DF90021402000F069F90021812000F049
:101CB00065F90021CF2000F061F90021A12000F09A
:101CC0005DF90021C82000F059F90021A62000F09C
:101CD00055F90021A82000F051F900213F2000F023
:101CE0004DF90021812000F049F90021FF2000F08A
:101CF00045F90021D32000F041F90021084600F009
:101D00003DF90021D52000F039F90021802000F0B4
:101D100035F90021D92000F031F90021F12000F03F
:101D20002DF90021DA2000F029F90021122000F01D
:101D300025F90021DB2000F021F90021402000F0EE
:101D40001DF90021202000F019F90021022000F0E7
:101D500015F900218D2000F011F90021142000F068
:101D60000DF90021A42000F009F90021A62000F0BF
:101D700005F90021AF2000F001F90021AF2000F0AB
:101D8000FDF8FFF757FFBDE870400021084600F05E
:101D900003B800001014014010B50446B031C8B2B9
:101DA000002100F0EBF8102040EA1410002100F0B0
:101DB000E5F804F00F00BDE8104040F001000021FC
:101DC00000F0DCB82DE9F041203A00240D468046B1
:101DD000D7B27F2803D900208D1C8046EDB229465A
:101DE000FFF7DAFF0F4E00BF04EB07100121305C54
:101DF00000F0C4F8641CE4B2082CF5D36D1CE9B201
:101E00004046FFF7C9FF002404EB071030440121CE
:101E1000007A00F0B3F8641CE4B2082CF4D3BDE8F7
:101E2000F0810000842E00082DE9F84F00241D46A3
:101E30008B460646174612F1FF4F01D2A04603E03B
:101E40004FF0010882F000473846FEF76CFA8246F0
:101E5000FEF764FA3946FEF7EEF92349FEF7EEF98C
:101E6000FEF761FA814650460A21B0FBF1F0641C8E
:101E7000E4B20028F9D1B8F1000F04D02D22594660
:101E80003046FFF79FFF6F0808FB0760C0B223468C
:101E900052465946009500F029F8444407FB046077
:101EA000C0B22E225946FFF78DFFB9F10A0F0095F7
:101EB0000FD2601C07FB0060C0B20123002259460C
:101EC00000F014F8A41C07FB0460C0B201230095C5
:101ED00004E0641C07FB0460C0B202234A46594672
:101EE00000F004F8BDE8F88F0000C8422DE9F04783
:101EF0008046002608981D4691468A463446470883
:101F000021E0281B401EC1B20A2000F0B3FFB9FB3C
:101F1000F0F00A21B0FBF1F201FB120026B9691EB4
:101F20008C4201DA30B101263030C2B207FB0480A6
:101F3000C0B203E007FB0480C0B220225146FFF785
:101F400041FF641CE4B2AC42DBD3BDE8F087F0B5DE
:101F500017460E46044600250CE031462046FFF7A2
:101F600031FF0834E4B2782C02D90024B61CF6B252
:101F70006D1CEDB27A5D002AEFD1F0BDF0B5114ACB
:101F8000202309B1136002E04FF4001111604FF4F7
:101F9000002111604FF48004002180256600402755
:101FA00014605FEA006C01D5156000E016601760F0
:101FB0004006491C000EC9B20829F1D30820106060
:101FC0001360F0BD101401407047000012494A78B8
:101FD00001EB8202127902704A7801EB8202D27818
:101FE00042704A7801EB820252798270D3B20022A9
:101FF000AA2B0BD0C2704878401C487048786428DF
:1020000000D34A708878401E887070474B7801EB87
:1020100083039B79C370EEE7FD00002009498A78AD
:10202000642A0DD80B78CA1C98540878401C087094
:102030000878642801D3002008708878401C8870D4
:10204000704700005000002015498A78642A20D883
:1020500042780B7801EB83031A7182780B7801EBDD
:102060008303DA70C2780B7801EB83035A71C3786B
:102070000022AA2B0ED0087801EB8000827108782C
:10208000401C08700878642800D30A708878401CC7
:102090008870704700790B7801EB83039871EEE745
:1020A000FD00002030B500200B4A0C4B01460546D0
:1020B00094682407FCD51D6094682407FCD41C6830
:1020C0004006E4B2000E322C01D9401CC0B2491CBB
:1020D000C9B20829ECD330BD0020014024140040CF
:1020E00070B506461248FFF78DFA1248FFF718F947
:1020F00000F0C6F800242546FFF7D4FF3055042C25
:1021000001D22844C5B2641CE4B2052CF4D3307962
:10211000A84201D1002400E001240122064904481C
:10212000FFF7F6FB0348FFF7EFF8204670BD00000D
:10213000A4030020A4020020000000202DE9F041AB
:1021400004460078052837D9E0782179A27901443E
:10215000607910440844E179C0B288422CD100264D
:102160003546DFF85880164F23E000BFC6EBC601A6
:1021700018F81120012A1AD108EB41006D1C417892
:10218000EDB2A278914212D1E178C170217901714A
:1021900061794171A1798171E179C1710121017286
:1021A000B87A012803D1A078DD2100F04DFB761C20
:1021B000F6B2B878A842D9D8BDE8F081B7000020BF
:1021C0000C00002010B50346FEF78CF9FE283CD128
:1021D000FEF788F91F494978814201D0FF2834D1A0
:1021E0005870FEF77FF99870FEF77CF9BB2807D08E
:1021F000DD2805D0CC2803D0AA2804D003241CE075
:10220000D870042004E0D870FEF76CF9187105202E
:1022100018701DE0432813D0AA2816D0FE2814D029
:10222000BB2812D0DD2810D0CC280ED01855FEF7D0
:1022300059F9641CE4B2142C05D2FD28EAD106E059
:10224000FEF750F9F2E7FD2801D0002010BD1C7008
:10225000012010BD0C0000200849897864290BD2A8
:102260000178052908D8C178BB2903D0CC2901D031
:10227000AA2901D1FFF7E8BE70470000FD00002049
:1022800010B5FEF7E7F80C4C4FF4002020614FF436
:10229000FA70FEF70FF9082020611E20FEF70AF9F8
:1022A000FEF7CCF8A0680007FCD4A0680007FCD5B6
:1022B000A0680007FCD410BD00200140704700005A
:1022C0002DE9FF5F0025F948019502950095016809
:1022D000F74C4FF0010A91B30560F64E3068C10625
:1022E00040F2F31014D4FEF7E5F83068C00626D4A7
:1022F000A07A012802D0A07A10B103E0A57201E013
:1023000084F80AA0FEF774F83068C006FCD516E021
:102310003168490613D4FEF7CDF8306840060ED474
:10232000607A012802D0607A10B103E0657201E0A2
:1023300084F809A0FEF75CF830684006FCD5DE485A
:102340000168DFF87883B1F5FA6F1BD3056001A847
:10235000FFF7C6FE70B99DF80400E0709DF8050017
:1023600020719DF8060060719DF80700A0719DF82E
:102370000800E071607A012804D1A07A18B1A07A2F
:1023800001282FD0C7E098F8000046460128F9D16F
:10239000B07A0128F6D171780522E01C00F0A0FA8D
:1023A000707B401C7073707B02280ED971780522F7
:1023B000E01C00F095FA71780522E01C00F090FA1C
:1023C00071780522E01C00F08BFA707B052808D993
:1023D00035707570B57275723572F57235737573C7
:1023E000A57098E00027B248B9460C38BB46456056
:1023F000856026E0C7EBC701039118F81110012989
:102400001DD109F1010101F0FF09039908EB410613
:10241000307A012840D0707B401C7073717B40463D
:1024200005290CD9039900F811503572B5727572EF
:10243000757075733573F572A078401EA0707F1C9F
:10244000FFB2A1784945D5D82746E01CFEF776F8BB
:10245000974E0C3EB168FDF799FEB060F81CFEF790
:1024600057F87168FDF792FE814670600BF101002C
:10247000FDF754FF01460390B068FDF711FFDFF848
:1024800040B25946FDF7DAFEFDF74DFF80260028E1
:102490001FDA7E7140421DE00BF1010000F0FF0BDE
:1024A000F01CFEF735F882490C394968FDF76EFEDD
:1024B0007F490C394860F01CFEF740F87C490C3924
:1024C0008968FDF763FE7A490C3988603572757347
:1024D000A4E77D71797941EA10217971B871484694
:1024E0000399FDF7DDFE5946FDF7A8FEFDF71BFF3A
:1024F000002802DAFE70404200E0FD70F97841EAFF
:102500001021F9703871F878397908447979BA79F5
:1025100011440844F8716B48016804290DD905601D
:10252000607A012809D16848FFF74CFE28B1664857
:10253000FFF792FE6448FFF701FE6448016809292D
:1025400010D90560607A01280CD15C48463080784B
:10255000002807D06846FFF739FDA07A18B1A07AA5
:10256000012834D0C7E09DF80200BB2802D0AA2879
:1025700022D0C0E098F80000464640B171789DF83E
:102580000100814202D1BB2100F05EF9B3E09DF869
:102590000100BB2100F058F986F800A09DF8011059
:1025A000717086F80AA086F809A03572F572357345
:1025B000757384F802A09EE09DF80300DD2805D124
:1025C00098F800104046012900D1457393E09DF82A
:1025D0000200CC2802D0AA285ED08CE00027394621
:1025E0009DF8010030E000BFC7EBC70318F8136087
:1025F000012E27D108EB4302491C5278C9B282420E
:1026000020D1C7EBC70608F816A008EB4306707088
:10261000B57286F809A03572F17A491CF17200F0A2
:102620003BF9F07A052812D99DF8010000F034F941
:102630009DF8010000F030F99DF8010000F02CF940
:10264000F57204E07F1CFFB2A2788A42CCD8C7EBB7
:10265000C700414618F8100010B14CE0401CC0B251
:10266000C0EBC00211F81220012AF7D0C0EBC00362
:1026700001F813A008EB43019DF8010048708D722A
:1026800081F809A00D7281F80BA04D73A178491C47
:10269000A17000F001F92EE09DF80300BB282AD1BB
:1026A0000020014642469DF8016021E02000002004
:1026B0000C000020081801403C000020B70000205A
:1026C000000020412400002090020020280000206B
:1026D000C0EBC00312F81370012F07D102EB4303C4
:1026E000491C5F78C9B2B74200D1DD72401CC0B24C
:1026F000A3788B42ECD84548016831290AD9056096
:10270000607A012806D1A07A20B9A07810B9FF20FC
:1027100000F022F93E480168B1F57A7F0ED30560DA
:10272000607A01280AD1A17A2046012906D1817850
:1027300021B10522FF21E01C00F0D2F835480168E4
:10274000632900D9056034480168B1F5FA7F57D391
:102750000560607A012813D1A07A88B998F8001032
:10276000404601290CD1017A012909D1C178E170D3
:1027700001792171417961718179A171C079E0712B
:10278000FFF758FA25A201211420FFF7E0FBE01C17
:10279000FDF7D4FE0246102301212820FFF744FB59
:1027A0001FA201215620FFF7D2FB1EA203211420F5
:1027B000FFF7CDFBE01CFDF7ABFE02461023032123
:1027C0002820FFF731FB18A203215620FFF7BFFB9B
:1027D000A07A012802D0A07A10B106E013A200E08E
:1027E00014A206210020FFF7B2FB607A012809D06D
:1027F000607A002804D111A206215020FFF7A7FB20
:10280000BDE8FF9F06210FA26420F7E72C000020FF
:10281000380000203000002034000020543A00002E
:1028200043000000483A000025524800486F737486
:1028300000000000536C61766500000053696E670C
:102840006C6500004E6574000CB509A3D3E9002344
:10285000CDE900238DF80100074840788DF802008B
:102860008DF804100521684600F02AF80CBD000020
:10287000FE0000AA000000000C00002005490968C5
:10288000090604D50349091D08600020704701208E
:10289000704700000048004008B507A10968009192
:1028A0008DF80100054840788DF802000421684643
:1028B00000F006F808BD0000FE0000BB0C00002080
:1028C00010B50C460346002206E0985CFFF7D6FFE1
:1028D0000028FAD1521CD2B2A242F6D310BD000099
:1028E00070B586B00E460446154614216846FDF7BD
:1028F00042FCFE208DF8000016488DF801604078FB
:1029000000238DF8020003216A4618E0E05CFE28EF
:102910000BD0FD2809D0AA2807D0432805D0BB2812
:1029200003D0DD2801D0CC2803D143205054491CCA
:10293000C9B2E05C5054491C5B1CC9B2DBB2AB426B
:10294000E4D3FD205054491CC9B21046FFF7B8FF2C
:1029500006B070BD0C00002008B507A10968009101
:102960008DF80100054840788DF802000421684682
:10297000FFF7A6FF08BD0000FE0000CC0C00002001
:10298000FEF7FEB830B58FB028216846FDF7F3FB9F
:1029900014210AA8FDF7EFFB01210804CDE900107E
:1029A0000024029402250491CDE907504FF4E01071
:1029B00009906846FEF786FA0F20CDE90A056802FD
:1029C000CDE90C4002210AA80E94FEF76FF90FB072
:1029D00030BD00000D48016841F00101016041680F
:1029E0000B4A1140416001680A4A114001600168C8
:1029F00021F480210160416821F4FE0141604FF41F
:102A00001F0181600449C003086070470010024044
:102A10000000FFF8FFFFF6FE08ED00E00148FEF7BA
:102A20000EBD0000A40200200148FEF708BD000012
:102A3000E40200200148FEF702BD0000240300204C
:102A4000F0B502681C4B1D4D1D4E1E4F1E4C4FF025
:102A5000804C984209D0A04207D0604505D0A842DA
:102A600003D0B04201D0B84204D122F0700E4A68BF
:102A700042EA0E02984209D0A04207D0604505D034
:102A8000A84203D0B04201D0B84203D122F440752D
:102A9000CA682A4322F080054A692A4302608A688C
:102AA000C2620A688262984201D0A04201D10969DB
:102AB000016301214161F0BD002C01400004004090
:102AC00000080040000C00400034014010B584684C
:102AD00042EA032224F47F440A432243826010BD69
:102AE000826822F070020A4342F007018160704759
:102AF00010B5036A046A24F001040462846924F0B6
:102B0000F00444EA021423F00A020A4384610262D8
:102B100010BD10B5036A23F0100303628369046AD1
:102B200023F4704343EA023224F0A00343EA011184
:102B30008261016210BD10B5406A0021C185C18467
:102B4000FEF78EFD10BD10B5406A0021C185202121
:102B500080F83A10FEF755FD10BD0168CA6822F4EE
:102B60009072CA6001684A6922F001024A6120211C
:102B700080F83A10704710B590F83A10222901D029
:102B8000022010BD8168B1F5805F11D00169002974
:102B900001681FD0496801F07F03816A4A1C826284
:102BA0000B70C18D491E0904090CC18518D02BE09A
:102BB0000269816A002A0268526805D0D2B20A808E
:102BC000816A491C8162ECE7C2F308020A80816ACB
:102BD000891CF7E74A68816A4B1C83620A70E0E748
:102BE0000168CA6822F02002CA600168CA6822F43B
:102BF0008072CA6001684A6922F001024A6120219C
:102C000080F83A10FEF7AEFE002010BD2DE9F0412D
:102C1000044600680169E26821F4405111430161F2
:102C20002169A0680843616908432168CA6841F2C4
:102C30000C639A430243CA6020684169A26921F487
:102C40004071114341614C49206864253226884215
:102C50003CD1FEF7F1F800EBC00101EB0010616818
:102C60008900B0FBF1F7FEF7E7F800EBC00101EBDC
:102C700000106168B0468900B0FBF1F0B0FBF5F0E0
:102C80006FF01801484307EB800106EB0110B0FB21
:102C9000F5F000F0F006FEF7CFF800EBC00101EB15
:102CA000001061688900B0FBF1F0B0FBF5F006EBB5
:102CB0000016FEF7C1F800EBC00101EB00106168DF
:102CC0008900B0FBF1F7FEF7B7F83BE0FEF7A4F898
:102CD00000EBC00101EB001061688900B0FBF1F767
:102CE000FEF79AF800EBC00101EB00106168B046F6
:102CF0008900B0FBF1F0B0FBF5F06FF0180148432C
:102D000007EB800106EB0110B0FBF5F000F0F006D8
:102D1000FEF782F800EBC00101EB0010616889004A
:102D2000B0FBF1F0B0FBF5F006EB0016FEF774F81F
:102D300000EBC00101EB001061688900B0FBF1F706
:102D4000FEF76AF800EBC00101EB00106168890032
:102D5000B0FBF1F0B0FBF5F06FF01801484307EB62
:102D6000800108EB0110B0FBF5F0216800F00F00C6
:102D700030448860BDE8F0810038014090F8391097
:102D8000212901D0022070478168B1F5805F016A76
:102D90000BD04A1C0262026809785160C18C491E3E
:102DA0000904090CC1840ED017E009880268C1F338
:102DB0000801516001690029016A02D0491C0162C1
:102DC000ECE7891CFBE70168CA6822F08002CA6050
:102DD0000068C16841F04001C160002070470000F8
:102DE0000148FEF73FBC0000640300200148FEF7E5
:102DF00039BC0000A4030020FEE702E008C8121F4F
:102E000008C1002AFAD170477047002001E001C1D3
:102E1000121F002AFBD17047FDF7BAFEFFF7B2FD83
:102E2000FEF7DEFDFEF7BEFDFEF772FEFEF794FE36
:102E3000FEF7B6FEFEF7D0FEFEF736FEFDF716FBF8
:102E4000FEF716FFFEF7F6FE0520FDF787FD0122CF
:102E500005490648FEF75CFD0548FEF755FA00BF38
:102E6000FFF72EFAFCE7000000000020A40300207A
:102E7000A40200200246012000E05043491EC9B2CE
:102E8000FBD27047000000000000000000000000BE
:102E900000000000000000F8000000000000003307
:102EA0003000000000100C06100C060000000000AE
:102EB0000000000040C07840C0784000043F040497
:102EC0003F040400007088FC08300000001820FF58
:102ED000211E0000F008F000E018000000211C0393
:102EE0001E211E0000F00888700000001E2123240F
:102EF0001927211010160E0000000000000000002D
:102F000000000000000000E01804020000000007BC
:102F10001820400000020418E000000000402018C3
:102F200007000000404080F0804040000202010F96
:102F300001020200000000F0000000000101011F7A
:102F400001010100000000000000000080B07000DE
:102F5000000000000000000000000000000101016E
:102F600001010101000000000000000000303000FD
:102F700000000000000000008060180400601806D7
:102F80000100000000E010080810E000000F102011
:102F900020100F00001010F8000000000020203F5B
:102FA00020200000007008080888700000302824E5
:102FB0002221300000300888884830000018202086
:102FC00020110E000000C02010F8000000070424AB
:102FD000243F240000F808888808080000192120F0
:102FE00020110E0000E0108888180000000F11204A
:102FF00020110E0000380808C83808000000003F03
:10300000000000000070880808887000001C222161
:1030100021221C0000E010080810E000000031220E
:1030200022110F00000000C0C000000000000030AE
:103030003000000000000080000000000000806000
:103040000000000000008040201008000001020481
:103050000810200040404040404040000404040468
:103060000404040000081020408000000020100824
:1030700004020100007048080808F0000000003059
:1030800036010000C030C828E810E00007182724E7
:1030900023140B000000C038E0000000203C230295
:1030A0000227382008F8888888700000203F2020F8
:1030B00020110E00C030080808083800071820202A
:1030C0002010080008F808080810E000203F202021
:1030D00020100F0008F88888E8081000203F202002
:1030E0002320180008F88888E8081000203F2000F6
:1030F00003000000C030080808380000071820202E
:10310000221E020008F808000008F808203F2101EC
:1031100001213F20000808F8080800000020203F97
:103120002020000000000808F8080800C080808007
:103130007F00000008F888C028180800203F200100
:103140002638200008F8080000000000203F20205A
:103150002020300008F8F800F8F80800203F003F71
:10316000003F200008F830C00008F808203F200089
:1031700007183F00E01008080810E0000F1020209A
:1031800020100F0008F808080808F000203F21016F
:1031900001010000E01008080810E0000F182424C6
:1031A00038504F0008F8888888887000203F200039
:1031B000030C3020007088080808380000382021EF
:1031C00021221C00180808F8080818000000203FF9
:1031D0002000000008F808000008F808001F202060
:1031E00020201F000878880000C838080000073831
:1031F0000E010000F80800F80008F800033C070082
:10320000073C0300081868808068180820302C03E9
:10321000032C30200838C800C83808000000203FC0
:103220002000000010080808C838080020382621AF
:1032300020201800000000FE020202000000007FB3
:1032400040404000000C30C00000000000000001C1
:103250000638C00000020202FE00000000404040AC
:103260007F000000000004020202040000000000D1
:10327000000000000000000000000000808080804E
:103280008080808000020204000000000000000036
:1032900000000000000080808080000000192422CF
:1032A00022223F2008F8008080000000003F11200B
:1032B00020110E000000008080800000000E112010
:1032C00020201100000000808088F800000E1120EE
:1032D00020103F200000808080800000001F2222FC
:1032E00022221300008080F0888888180020203F68
:1032F000202000000000808080808000006B94947B
:103300009493600008F8008080800000203F210036
:1033100000203F2000809898000000000020203FFF
:1033200020200000000000809898000000C08080ED
:10333000807F000008F8000080808000203F240289
:103340002D302000000808F8000000000020203F79
:10335000202000008080808080808000203F20002E
:103360003F20003F8080008080800000203F2100BF
:1033700000203F200000808080800000001F20206F
:1033800020201F00808000808000000080FFA1209E
:1033900020110E000000008080808000000E1120AF
:1033A00020A0FF80808080008080800020203F213E
:1033B00020000100000080808080800000332424F1
:1033C00024241900008080E0808000000000001F9D
:1033D000202000008080000000808000001F20204E
:1033E00020103F20808080000080808000010E300F
:1033F0000806010080800080008080800F300C0370
:103400000C300F0000808000808080000020312E72
:103410000E312000808080000080808080818E704E
:103420001806010000808080808080000021302C00
:103430002221300000000000807C02020000000019
:10344000003F404000000000FF00000000000000BE
:10345000FF0000000002027C800000000040403FAE
:103460000000000000060101020204040000000048
:103470000000000000000000000000000102030442
:10348000060708090000000001020304AC3400082C
:103490000000002050000000FA2D0008FC34000855
:1034A00050000020200800000A2E00080000000044
:1034B0000000000000000000010300000000000008
:1034C00001000000000000000000000000000000FB
:1034D00000000000000000000000000000000000EC
:1034E00000000000000000000000000001000000DB
:0C34F000100000000000000000A24A04D0
:0400000508000131BD
:00000001FF
